:020000040800F2
:100000003009002029020008231B00082D160008D3
:10001000211B00081F040008351F00080000000015
:10002000000000000000000000000000271B000886
:100030002104000800000000251B0008291B0008FF
:10004000430200084302000843020008430200087C
:10005000430200084302000843020008430200086C
:10006000430200084302000843020008430200085C
:10007000430200084302000843020008430200084C
:10008000430200084302000843020008430200083C
:10009000430200084302000843020008430200082C
:1000A000430200084302000843020008430200081C
:1000B000430200084302000843020008430200080C
:1000C00043020008430200084302000843020008FC
:1000D00043020008430200084302000843020008EC
:1000E00043020008430200084302000843020008DC
:1000F00043020008430200084302000843020008CC
:1001000043020008430200084302000843020008BB
:1001100043020008430200084302000843020008AB
:10012000430200084302000843020008430200089B
:10013000430200084302000843020008430200088B
:10014000430200084302000843020008430200087B
:10015000430200084302000843020008430200086B
:10016000430200084302000843020008430200085B
:100170004302000843020008430200080000000098
:10018000430200084302000800F002F800F03CF8C7
:100190000AA090E8000C82448344AAF10107DA45E2
:1001A00001D100F031F8AFF2090EBAE80F0013F0F8
:1001B000010F18BFFB1A43F001031847201E00006F
:1001C000401E0000103A24BF78C878C1FAD8520700
:1001D00024BF30C830C144BF04680C6070470000C1
:1001E0000023002400250026103A28BF78C1FBD840
:1001F000520728BF30C148BF0B6070471FB501F0E0
:10020000DBFE1FBD10B510BD00F0CFF81146FFF7A3
:10021000F5FF01F0A1FE00F0EDF803B4FFF7F2FFE7
:1002200003BC00F0F5F80000094880470948004782
:10023000FEE7FEE7FEE7FEE7FEE7FEE7FEE7FEE796
:10024000FEE7FEE704480549054A064B70470000F3
:10025000C51B000889010008300300203009002078
:10026000300500203005002053EA020C00F06980C0
:100270002DE9F04B4FF00006002B1FBFB3FA83F5BA
:1002800003FA05F424FA05F65E4012BF1643B2FAEB
:1002900082F502FA05F4C5F120051EBF22FA05FC1D
:1002A00044EA0C04203556EA044C4FEA144418BFC3
:1002B000641C4FF000084FF00009904271EB030CF2
:1002C00039D3002919BFB1FA81F701FA07F6B0FA5C
:1002D00080F700FA07F6C7F120071EBF20FA07FCD7
:1002E00046EA0C062037B6FBF4FCA7EB0507103FE7
:1002F00007F01F0BCBF120060CFA0BFB2CFA06F6CD
:1003000044BFB3460026202FA4BF5E464FF0000B2B
:100310005BEA060C08BF4FF0010B19EB0B09ABFBB6
:10032000027C48EB0608C01B06FB02CC0BFB03CC8F
:1003300071EB0C01C1E70B46024641464846BDE859
:10034000F08B13B54FF000004FF00001AFF30080C9
:10035000BDE81C4070474FF0000200B513469446BC
:100360009646203922BFA0E80C50A0E80C50B1F10D
:100370002001BFF4F7AF090728BFA0E80C5048BF21
:100380000CC05DF804EB890028BF40F8042B08BFBF
:10039000704748BF20F8022B11F0804F18BF00F8BB
:1003A000012B7047704770477047754600F02CF876
:1003B000AE4605006946534620F00700854618B052
:1003C00020B5FFF73FFFBDE820404FF000064FF09B
:1003D00000074FF000084FF0000B21F00701AC467A
:1003E000ACE8C009ACE8C009ACE8C009ACE8C00999
:1003F0008D46704710B50446AFF300802046BDE837
:100400001040FFF70ABF000000487047CC020020F0
:1004100001491820ABBEFEE7260002007047FEE748
:10042000704772B6FEE770B5040003D094F8200060
:1004300010B104E0012070BD204600F081F8206872
:10044000016841F00101016000F0C0F90546052690
:1004500004E000F0BBF9401B0A2811D8206840686E
:10046000C007F6D02068016821F00201016000F0A9
:10047000ADF905460BE000F0A9F9401B0A2806D9A2
:10048000606A40F40030606284F82060D2E720683F
:1004900040688007EFD4207E0128206801683DD0A5
:1004A00021F080010160607E01282068016838D059
:1004B00021F040010160A07E01282068016833D04E
:1004C00021F020010160E07E0128206801682ED023
:1004D00041F010010160207F01282068016829D0C7
:1004E00021F008010160607F01282068016824D0A4
:1004F00021F004010160D4E902010843D4E90412A7
:10050000114308436168491E08432168C8610020FF
:100510006062012084F82000002070BD41F080015D
:10052000C0E741F04001C5E741F02001CAE721F0F2
:100530001001CFE741F00801D4E741F00401D9E709
:1005400010B586B0044614216846FFF704FF14492D
:100550002068884221D113480021026842F00072CD
:100560000260006800F0007005900E4810380268C4
:1005700042F001020260006800F0010005904FF4B3
:10058000C05000900220CDE9010103200390092012
:1005900004906946044800F01BF806B010BD000046
:1005A00000640040403802400000024070B504463C
:1005B00000F00CF90546601C02D0044800780444A1
:1005C00000F004F9401BA042FAD370BD00000020E7
:1005D0002DE9F84FDFF8BCA10022012503264FF0DA
:1005E0000F090AF1040BAAF1040E00BF0B6805FA0B
:1005F00002F42340A34270D10F7907F00307012FC3
:1006000001D0022F16D187684FEA420806FA08FC8B
:1006100027EA0C07D1F80CC00CFA08FC4CEA070CCE
:10062000C0F808C04768A7430C79C4F3001494408D
:100630003C4344600C79E443A4070AD0C4684FEA01
:10064000420C06FA0CF7BC438F6807FA0CF72743F5
:10065000C7600C7904F00304022C12D1D40800EB1B
:10066000840CDCF820405707FF0E09FA07F824EA4B
:100670000804D1F8108008FA07F848EA0408CCF812
:10068000208004684FEA420C06FA0CF7BC430F794D
:1006900007F0030707FA0CF7274307604C6814F4C8
:1006A000403F70D03C4C276847F48047276024685F
:1006B00022F0030704F480440094384C07EB040C48
:1006C000DCF8084897074FEA177809FA08F7BC439F
:1006D000334FB84202D1002724E054E0314FB842F2
:1006E00001D101271EE0304FB84201D1022719E0A5
:1006F0002E4FB84201D1032714E02D4FB84201D14B
:1007000004270FE02B4FB84201D105270AE02A4FFA
:10071000B84201D1062705E0284FB84201D107278A
:1007200000E0082707FA08F72743CCF80878DAF83A
:1007300000405746D1F804C09C435FEACC2C00D55A
:100740001C433C60DBF800405F46D1F804C09C438A
:100750005FEA8C2C00D51C433C60DEF800407746F5
:10076000D1F804C09C435FEA8C3C00D51C433C603C
:10077000084F083F3C68D1F804C09C435FEACC3C7A
:1007800000D51C433C60521C102AFFF42FAFBDE87B
:10079000F88F0000083C014044380240003001401E
:1007A000000002400004024000080240000C024029
:1007B000001002400014024000180240001C0240D9
:1007C0000AB1816170470904FBE7000001488068B5
:1007D000704700000000002070B5040025D094F898
:1007E0003D00002520B984F83C50204600F0B8F8C0
:1007F000242084F83D002068016821F00101016097
:100800002068016841F4004101602068016821F41A
:100810000041016000F000FA4D4A6168914201D840
:100820004C4900E04C49884201D2012070BD4B493F
:100830002368B0FBF1F15E6826F03F060E435E6070
:100840006368934206D94FF4967359434FF47A7311
:10085000B1FBF3F12368491C1E6A26F03F063143C1
:1008600019626168914210D84900401EB0FBF1F254
:10087000521CC2F30B02042A01D2042022E0B0FB76
:10088000F1F0401CC0F30B001CE0A268F2B301EBD6
:10089000C10303EB0116431EB3FBF6F35B1C43F4E9
:1008A00080431B0549D092B301EBC10202EB011159
:1008B000401EB0FBF1F0401CC0F30B0040F4804040
:1008C00040F400402168CA694CF6FF739A43104314
:1008D000C861D4E9071001432068026822F0C00211
:1008E00011430160D4E9030101432068826848F2A2
:1008F000FF339A4311438160D4E90501084321681D
:10090000CA6822F0FF021043C86001E00EE016E062
:100910002068016841F0010101602564202084F80D
:100920003D00256384F83E50002070BD01EB410678
:10093000431EB3FBF6F35B1CB3E70120C2E701EBF8
:100940004101401EB0FBF1F0401CC0F30B00B7E7C3
:10095000A086010080841E0000093D0040420F0077
:1009600010B586B0044614216846FFF7F4FC14491C
:100970002068884221D113480021026842F0020217
:100980000260006800F0020005904FF44070009093
:100990001220CDE901010320039004200490694650
:1009A0000948FFF715FE07481030016841F40011AF
:1009B0000160006800F40010059006B010BD000052
:1009C0000054004030380240000402400248816870
:1009D0000278114481607047000000200B4810B578
:1009E000016841F400710160016841F480610160B7
:1009F000016841F480710160032000F061F80F206C
:100A000000F006F800F024F8002010BD003C024081
:100A100070B50D4D04464FF47A712878B1FBF0F0B3
:100A20000A490968B1FBF0F000F0FCFA48B9102C53
:100A300007D200222146501E00F022F800206C60F0
:100A400070BD012070BD0000000000200C000020DF
:100A50000A4808B5016841F480410160006800F46B
:100A6000804000900548001F016841F080510160FE
:100A7000006800F08050009008BD0000443802403B
:100A8000F0B40E4B1B680C46C3F30223C3F10705F9
:100A9000042D00D90425191D072901D2002300E0E7
:100AA000DB1E012606FA05F1491E214099409E40B1
:100AB000761E16403143F0BC01F03DBA0CED00E06B
:100AC000064900F0070208684FF6FF03184040EAA5
:100AD0000220034A10430860704700000CED00E05C
:100AE0000000FA052DE9F0470E46050065D0DFF855
:100AF0001481D8F80000F7B200F00700B04207D226
:100B000088F80070D8F8000000F00700B04254D117
:100B100028683D4C810712D5400703D5206840F472
:100B2000E05020602878000703D5206840F460403A
:100B300020602068A96820F0F00008432060287831
:100B4000C0072DD0304968680839012812D0022822
:100B500013D0032811D00968890700292DDA2168EC
:100B600021F0030101432160FFF730FE814641F28D
:100B7000883A0EE009688903EFE709688901ECE724
:100B8000FFF724FEA0EB0901514502D90320BDE87F
:100B9000F0872068696800F00C00B0EB810FEFD19E
:100BA000D8F80010404601F00701B14207D907709C
:100BB000006800F00700B04201D00120E7E7287884
:100BC000400705D52068E96820F4E050084320601C
:100BD0002878000706D52068296920F4604040EA9B
:100BE000C100206000F038F82168084AC1F3031101
:100BF000515CC8400649086006480068FFF708FFD6
:100C00000020C4E7003C024008380240C21F000830
:100C10000C00002004000020044805490068096811
:100C2000044AC1F38221515CC84070470C00002087
:100C300008380240D21F00080448054900680968C6
:100C4000044AC1F34231515CC84070470C00002097
:100C500008380240D21F0008154810B5006810F08F
:100C60000C02144813D04110042A0FD0082A0ED1C8
:100C70000F4C241F2268236802F03F025B0207D555
:100C80002068C0F38810A0FB010106E0084610BDF3
:100C90002168C1F38811A1FB00010023FFF7E4FAEA
:100CA0002168C1F30141491C4900B0FBF1F010BDBE
:100CB000083802400024F4002DE9F84F04006ED0FB
:100CC0002078DFF84C93C007A9F104054AD009F158
:100CD00004000168C1F38101012908D00068C0F354
:100CE000810002280AD1D9F80000400206D5286800
:100CF000800337D560680028E1D033E06068B0F544
:100D0000803F10D0B0F5A02F286810D020F480309C
:100D10002860286820F4802028606068A8B1FFF768
:100D200055FD06460DE0286840F48030F4E740F4B5
:100D300080202860F7E700BFFFF748FD801B64288C
:100D400073D828688003F7D50CE0FFF73FFD06460F
:100D500005E000BFFFF73AFD801B6428F0D8286843
:100D60008003F7D42078DFF8AC8280074FF0000AC8
:100D70003ED5A748001D016811F00C0F08D000688F
:100D8000C0F3810002280BD1D9F80000400207D43B
:100D90002868800716D5E068012800D112E033E109
:100DA000E068B8B10120C8F80000FFF70FFD064663
:100DB00005E000BFFFF70AFD801B0228C0D82868A5
:100DC0008007F7D52868216920F0F80040EAC100C3
:100DD00028600DE0C8F800A0FFF7F8FC064604E024
:100DE000FFF7F4FC801B02281FD828688007F7D47F
:100DF0002078000722D5864F87486169703771B126
:100E000001210160FFF7E2FC064604E0FFF7DEFC8B
:100E1000801B022809D838688007F7D50EE0C0F893
:100E200000A0FFF7D3FC064605E082E0FFF7CEFC0A
:100E3000801B02287DD838688007F7D420784007C7
:100E400068D5DFF8CCB100270BF13C0BDBF80000D4
:100E5000C0000BD4DBF8001041F08051CBF800103B
:100E6000DBF80000012700F0805000906B4E3068E6
:100E7000C00510D4306840F480703060FFF7A6FCE5
:100E8000009005E0FFF7A2FC0099401A022850D814
:100E90003068C005F6D55E4EA0686C3601280FD0CC
:100EA0000528306810D020F001003060306820F054
:100EB00004003060A068B8B1FFF788FC00900FE034
:100EC000306840F00100F4E740F004003060F7E7DC
:100ED000FFF77CFC0099411A41F28830814266D8C4
:100EE00030688007F4D50EE0FFF770FC009007E053
:100EF000FFF76CFC0099411A41F28830814256D8C4
:100F000030688007F4D42FB1DBF8001021F0805155
:100F1000CBF80010A069C8B33D49091D0968C1F3A9
:100F2000810102294AD00228504607D0C8F8600043
:100F300000E03CE0FFF74AFC04463BE04746C8F8C7
:100F40006000FFF743FC064605E000BFFFF73EFCEC
:100F5000801B02282BD828688001F7D4D4E9070128
:100F60000843A16A2E4A490802EB0141626A41EA3C
:100F70008211084394F82C1040EA0161C9F800106E
:100F800001203866FFF722FC044606E03EE000BF81
:100F9000FFF71CFC001B022809D828688001F7D540
:100FA00034E000BFFFF712FC001B022802D9032027
:100FB000BDE8F88F28688001F4D427E00128F7D035
:100FC000D9F80000E26900F4800191421CD1226A44
:100FD00000F03F01914217D147F6C071626A0140AB
:100FE000B1EB821F10D1A26A4FF0FF3300F4403101
:100FF00003EB5202B1EB024F06D194F82C1000F033
:101000007060B0EB016F01D00120D1E70020CFE785
:101010000438024000004742800E47420070004002
:101020000000FFFF10B5401EB0F1807F01D301200A
:1010300010BD4FF0E02460610F21601700F07BFFCE
:101040000020A06107202061002010BD10B590F89D
:101050003C20012A22D0012280F83C20CA688C68FA
:1010600022F4407222434C6822F4806222430C68CE
:1010700022F4006222430C6922F4805222434C691C
:1010800022F400522243C969002322F480420A4319
:1010900001684A6480F83C30002010BD022010BD79
:1010A00070B590F83C20012A32D0012480F83C40F1
:1010B000022280F83D2003685A689D6822F070067D
:1010C0000A6832435A60134B02689A4214D0B2F154
:1010D000804F11D0104B9A420ED0104B9A420BD039
:1010E0000F4B9A4208D00F4B9A4205D00E4B9A42B2
:1010F00002D00E4B9A4204D1496825F0800319436F
:10110000916080F83D40002180F83C10084670BD99
:10111000022070BD000001400004004000080040B3
:10112000000C004000040140004001400018004055
:101130002DE9F0410D46040003D094F83D0018B1AC
:1011400008E00120BDE8F081002084F83C00204642
:1011500000F040F8022084F83D002068816844F2E5
:10116000070291438160211D206800F033FD226851
:1011700090689169166A2B68AF69034340F20330A7
:10118000814341EA0721A868EF6908434FF6FC4113
:101190008843E96840EA0720014328692F6A000173
:1011A00040EA0730084369686D6926F0AA0646EAF6
:1011B0000515294393602268906154F8460B01623B
:1011C000012004F81F09E0752076E0762077A075ED
:1011D0000020B7E710B586B0044614216846FFF733
:1011E000BAF82268214C002121480223A2421AD1D8
:1011F0001F4A1032146844F002041460126802F0AE
:1012000002020592026842F002020260006800F0E9
:101210000200059030200090CDE90131CDE90313A3
:10122000694614481DE0144CA2421CD1104A1432E5
:10123000146844F002041460126802F0020205927D
:10124000026842F004020260006800F004000590A9
:10125000C0200090CDE901310320CDE9031069469B
:101260000648FFF7B5F906B010BD000000040040C5
:1012700030380240000402400004014000080240EF
:1012800070B586B0044614216846FFF764F8214A19
:101290002168002420480225012691420FD10168CF
:1012A00041F0100101600068694600F010000590EF
:1012B0004FF428500090CDE90154184824E0B1F1D2
:1012C000804F25D1016841F002010160016801F001
:1012D00002010591016841F0010101600068694661
:1012E00000F00100059040F608400090CDE901545F
:1012F000CDE903460A48FFF76BF94FF40040009030
:10130000CDE9015407486946CDE90346FFF760F986
:1013100006B070BD000001403038024000100240AD
:10132000000402400000024070B5044690F83C0002
:1013300000260D4601280FD0012084F83C006AB138
:10134000042A1DD0082A2FD00C2A3FD001260020C5
:1013500084F83C00304670BD022070BD206800F06B
:10136000A1FC2068816941F00801816120688169E0
:1013700021F004018161206881692A69114311E02B
:10138000206800F0BFFC2068816941F40061816140
:101390002068816921F480618161206881692A69FE
:1013A00041EA02218161D2E7206800F0E1FC206877
:1013B000C16941F00801C1612068C16921F00401DF
:1013C000C1612068C1692A69114311E0206800F0F9
:1013D00003FD2068C16941F40061C1612068C169F1
:1013E00021F48061C1612068C1692A6941EA022152
:1013F000C161ACE710B5040003D094F83D0010B112
:1014000007E0012010BD002084F83C00204600F0D9
:101410001FF8022084F83D00211D206800F0DAFB4F
:10142000012084F8460084F83E0084F83F0084F8E8
:10143000400084F8410084F8420084F8430084F8B6
:10144000440084F8450084F83D00002010BD0000F1
:1014500008B500680949884201D1094804E0B0F1A3
:10146000804F09D10648001F016841F00101016069
:10147000006800F00100009008BD0000000001407D
:101480004438024070B5040004D094F841000025AF
:1014900010B106E0012070BD84F84050204600F0F5
:1014A00023F8242084F841002068C16821F4005109
:1014B000C160204600F0B8FC2068016921F4904129
:1014C00001612068416921F02A0141612068C168F9
:1014D00041F40051C1606564202084F8410084F823
:1014E00042006563002070BDF0B587B0044614214A
:1014F0006846FEF730FF4649DFF810C12368002434
:10150000434A10390225032608274248634511D172
:10151000136843F400231360126802F4002205925A
:101520000A6842F004020A60096801F004010591AA
:10153000B10267E0DFF8E0C063452DD1136843F4E2
:1015400080131360126802F4801205920A6842F058
:1015500004020A600A6802F0040205920A6842F076
:1015600008020A60096802AB01F0080105914FF416
:101570008051CDE9001583E8D0006946FFF728F8CF
:101580000420CDE900052548694602AB83E8D00078
:10159000FFF71EF807B0F0BDDFF884C00727214829
:1015A00063451AD11A4A121D136843F010031360E1
:1015B000126802F0100205920A6842F001020A6005
:1015C000096802AA01F0010105914FF4C061CDE95B
:1015D000001582E8D0006946DAE7DFF84CC06345C1
:1015E000D8D1136843F400331360126802F4003258
:1015F00005920A6842F001020A60096801F00101DF
:1016000005910C21CDE900156946BEE7004C00406C
:10161000403802400008024000500040000C0240E8
:10162000001001400000024000440040FEE70000BE
:101630000D4810B50B490160102141600021816007
:10164000C16001614161017641768176C1760177A1
:101650004177FEF7E8FE002803D0BDE81040FEF712
:10166000E0BE10BD00640040100000202DE9F047EE
:1016700086B014216846FEF76EFE4F4800240168CC
:1016800041F010010160016801F01001059101684D
:1016900041F080010160016801F08001059101685D
:1016A00041F004010160016801F004010591016845
:1016B00041F001010160016801F00101059101683B
:1016C00041F002010160016801F002010591016829
:1016D00041F0080101600068384F00F008000590F3
:1016E0000022F0213846FFF76BF8DFF8D4800022A3
:1016F00020214046FFF764F8DFF8C8900022C2219D
:101700004846FFF75DF8DFF8C0A04FF4804600229E
:1017100031465046FFF754F83F20CDE900046946B2
:1017200050460294FEF754FF40F20130CDE9000428
:10173000694640460294FEF74BFF0320CDE90004C2
:10174000694638460294FEF743FFF02000900125D9
:10175000CDE90154694638460394FEF739FF20204D
:101760000090CDE90154694640460394FEF730FFEE
:10177000CDE90054694648460294FEF729FFC2208D
:101780000090CDE90154694648460394FEF720FFD6
:101790000096CDE90154694650460394FEF718FFC0
:1017A0000220CDE90004694608480294FEF710FFC4
:1017B00006B0BDE8F087000030380240000002406B
:1017C000000802400004024000100240000C0240E9
:1017D0000D4810B50B4901600C49416000214FF4E0
:1017E00080428160C0E9031241618161C16101628F
:1017F000FEF7F2FF002803D0BDE81040FEF711BE4F
:1018000010BD00000054004038000020A0860100F8
:1018100010B592B000240F941C2168461094FEF776
:101820009AFD202107A8FEF796FD28482649C0E921
:1018300000144FF6FF71C0E9024104614461846104
:10184000FFF7D8FD08B1FEF7ECFD0F940FA91F4874
:101850001094FFF725FC08B1FEF7E3FD6020CDE909
:1018600000040294039404940594002269461748E6
:101870000694FFF759FD08B1FEF7D3FD042269462F
:101880001248FFF751FD08B1FEF7CBFD082269466B
:101890000E48FFF749FD08B1FEF7C3FD0794089411
:1018A00009944FF400500A94CDE90B4007A907486A
:1018B0000E94FFF7CBFB08B1FEF7B3FD0348FFF72B
:1018C000DFFC12B010BD0000000001408C000020C1
:1018D00010B58AB0002407941C2168460894FEF7CE
:1018E0003AFD21484FF08041C0E90014611EC0E973
:1018F000024104618461FFF77DFD08B1FEF791FDAF
:10190000079407A918480894FFF7CAFB08B1FEF727
:1019100088FD6020CDE90004029400226946124847
:101920000494FFF701FD08B1FEF77BFD0422694630
:101930000D48FFF7F9FC08B1FEF773FD0822694670
:101940000948FFF7F1FC08B1FEF76BFD0C22694670
:101950000548FFF7E9FC08B1FEF763FD0248FFF711
:101960008FFC0AB010BD0000D400002010B58CB070
:1019700024216846FEF7EFFC00241548099413491A
:101980000A94C0E900144FF6FF71C0E902410461F6
:1019900084610120CDE90004CDE902040494CDE97D
:1019A0000540079469460A480894FFF7C1FB08B14F
:1019B000FEF737FD099409A905480A94FFF770FB63
:1019C000002801D0FEF72DFD0CB010BD0004004032
:1019D0001C01002010B58CB024216846FEF7BBFC2A
:1019E00000241648099414490A94C0E900144FF6DB
:1019F000FF71C0E902410461446184610120CDE9C5
:101A00000004CDE902040494CDE905400794694639
:101A10000A480894FFF78CFB08B1FEF702FD099411
:101A200009A906480A94FFF73BFB002801D0FEF7FE
:101A3000F8FC0CB010BD000000040140640100205F
:101A40000C4810B50A4901604FF4E13141600021B2
:101A500081600C22C160C0E904128161C161FFF79D
:101A600011FD002803D0BDE81040FEF7DABC10BD20
:101A7000004C0040AC0100200C4810B50A49016040
:101A80004FF4E1314160002181600C22C160C0E966
:101A900004128161C161FFF7F5FC002803D0BDE8A5
:101AA0001040FEF7BEBC10BD00500040F401002005
:101AB0000C4810B50A4901604FF4E1314160002142
:101AC00081600C22C160C0E904128161C161FFF72D
:101AD000D9FC002803D0BDE81040FEF7A2BC10BD21
:101AE000001001403C0200200C4810B50A4901607A
:101AF0004FF4E1314160002181600C22C160C0E9F6
:101B000004128161C161FFF7BDFC002803D0BDE86C
:101B10001040FEF786BC10BD004400408402002047
:101B2000FEE7FEE770477047FEF750BF30B593B051
:101B300030216846FEF70FFC14210CA8FEF70BFCC1
:101B40001E480025016841F080510160006800F0E6
:101B5000805011901A48016841F48041016000688A
:101B6000022400F4804011900120009000040190B4
:101B70008001CDE90640082008904FF4A870CDE917
:101B8000090404200B906846FFF796F808B172B676
:101B9000FEE70CA90F2081E831004FF4A0500F9010
:101BA0004FF48050109005210CA8FEF79BFF0028F1
:101BB00001D072B6FEE713B030BD000040380240DD
:101BC000007000400248016841F4700101607047F4
:101BD00088ED00E0F0B50268274B284D284E294FCC
:101BE000294C4FF0804C984209D0604507D0A8425C
:101BF00005D0B04203D0B84201D0A04204D122F0B7
:101C0000700E4A6842EA0E0298421BD0604519D015
:101C1000A84217D0B04215D0B84213D0A04211D07C
:101C20001A4DA8420ED01A4DA8420BD0194DA84209
:101C300008D0194DA84205D0184DA84202D0184D21
:101C4000A84203D122F44075CA682A434D6922F0A4
:101C500080022A438D68C5620D688562984201D072
:101C6000A04201D109690163016841F004010160EA
:101C7000012141610260F0BD00000140000400400C
:101C800000080040000C00400004014000400140FA
:101C9000004401400048014000180040001C004082
:101CA00000200040F0B5036A026A22F001020262DD
:101CB00042688469124E24F073050C682C4323F0AB
:101CC00002058B682B430D4DA84201D0B04205D1CF
:101CD00023F00807CB683B4323F00403A84201D05C
:101CE000B04205D14D6922F4407215438A692A43F6
:101CF00042608461496841630362F0BD00000140B5
:101D000000040140F0B5026A036A23F01003036285
:101D1000436884690D6824F4E64444EA05248D6828
:101D200022F0200242EA05120F4D104EA84201D0C7
:101D3000B04206D1CF6822F0800242EA071222F0B8
:101D40004002A84201D0B04207D14D6923F440635C
:101D500043EA85038D6943EA8503436084614968EA
:101D600081630262F0BD00000000014000040140F8
:101D7000F0B5026A036A23F4807303624368C4699E
:101D800022F4007224F073050C68124E2C438D6807
:101D900042EA05220E4DA84201D0B04206D1CF68DA
:101DA00022F4006242EA072222F48062A84201D0B3
:101DB000B04207D14D6923F4405343EA05138D69BE
:101DC00043EA05134360C4614968C1630262F0BD20
:101DD000000001400004014030B5046A026A22F4A8
:101DE000805202624268C3690D6823F4E64343EA05
:101DF00005238D6824F4005444EA0534084DA842B4
:101E000002D0084DA84204D14D6922F4804242EA32
:101E100085124260C36149680164046230BD0000FC
:101E2000000001400004014070B5044600680169EB
:101E3000E26821F44051114301612169A068E2691F
:101E400008436169114308432168CA6849F20C6379
:101E50009A430243CA6020684169A26921F4407133
:101E60001143416131492068884202D0304988429B
:101E700002D1FEF7E1FE01E0FEF7CEFEE2690023AB
:101E8000192164253226B2F5004F626828D0A0FBE4
:101E90000101930F9200FEF7E7F90146B0FBF5F060
:101EA0006FF01802504301EB800006EB0010B0FB0E
:101EB000F5F000F0F002B1FBF5F002EB0012B1FB1F
:101EC000F5F06FF01803584301EB800006EB0010AB
:101ED000B0FBF5F000F00F0021681044886070BD81
:101EE000A0FB010192185B41FEF7BEF90146B0FB71
:101EF000F5F00201B1FBF5F06FF01803584301EB68
:101F0000800006EBC000B0FBF5F000F0F80002EB3B
:101F10004002B1FBF5F0584301EB800006EBC00036
:101F2000B0FBF5F000F00700D6E70000001001401C
:101F300000140140FEE70907090E002804DB00F148
:101F4000E02080F80014704700F00F0000F1E0205E
:101F500080F8141D70470000FEF740FDFFF7E6FD16
:101F6000FFF784FBFFF764FBFFF732FCFFF750FC41
:101F7000FFF7AEFCFFF7FAFCFFF72CFDFFF760FD63
:101F8000FFF77AFDFFF794FDFFF7AEFD094D4FF423
:101F90007A74012220212846FEF712FC2046FEF723
:101FA00005FB002220212846FEF70AFC2046FEF70A
:101FB000FDFAEEE7000802404FF04070E1EE100A33
:101FC0007047000000000000000001020304060743
:101FD000080900000000010203040000FC1F0008C3
:101FE0000000002010000000C40100080C200008C0
:101FF0001000002020090000E0010008010000009E
:0C20000010000000000000000024F400AC
:040000050800018965
:00000001FF
